:100000000C9434000C943E000C943E000C943E0082
:100010000C943E000C943E000C943E000C943E0068
:100020000C943E000C943E000C943E000C943E0058
:100030000C943E000C943E000C943E000C943E0048
:100040000C943E000C943E000C943E000C943E0038
:100050000C943E000C943E000C943E000C943E0028
:100060000C943E000C943E0011241FBECFEFD8E04C
:10007000DEBFCDBF0E9440000C9465000C940000D0
:10008000209A26982E9A27982F9A20E931E01F99D6
:1000900013C01E9909C088EC90E0F9013197F1F77F
:1000A0000197D9F7289AF3CF88EC90E0F9013197BE
:1000B000F1F70197D9F707C088EC90E0F901319783
:0E00C000F1F70197D9F72898E2CFF894FFCF17
:00000001FF
